{
  "_format": "hh-sol-artifact-1",
  "contractName": "HealthInsurance",
  "sourceName": "contracts/healthinsurance.sol",
  "abi": [
    {
      "inputs": [],
      "stateMutability": "nonpayable",
      "type": "constructor"
    },
    {
      "anonymous": false,
      "inputs": [
        {
          "indexed": false,
          "internalType": "uint256",
          "name": "claimId",
          "type": "uint256"
        },
        {
          "indexed": false,
          "internalType": "bool",
          "name": "approved",
          "type": "bool"
        },
        {
          "indexed": false,
          "internalType": "bool",
          "name": "isFraud",
          "type": "bool"
        }
      ],
      "name": "ClaimReviewed",
      "type": "event"
    },
    {
      "anonymous": false,
      "inputs": [
        {
          "indexed": false,
          "internalType": "uint256",
          "name": "claimId",
          "type": "uint256"
        },
        {
          "indexed": false,
          "internalType": "string",
          "name": "patientId",
          "type": "string"
        },
        {
          "indexed": false,
          "internalType": "string",
          "name": "ipfsHash",
          "type": "string"
        }
      ],
      "name": "ClaimSubmitted",
      "type": "event"
    },
    {
      "inputs": [],
      "name": "admin",
      "outputs": [
        {
          "internalType": "address",
          "name": "",
          "type": "address"
        }
      ],
      "stateMutability": "view",
      "type": "function"
    },
    {
      "inputs": [],
      "name": "claimCount",
      "outputs": [
        {
          "internalType": "uint256",
          "name": "",
          "type": "uint256"
        }
      ],
      "stateMutability": "view",
      "type": "function"
    },
    {
      "inputs": [
        {
          "internalType": "uint256",
          "name": "",
          "type": "uint256"
        }
      ],
      "name": "claims",
      "outputs": [
        {
          "internalType": "string",
          "name": "patientId",
          "type": "string"
        },
        {
          "internalType": "string",
          "name": "ipfsHash",
          "type": "string"
        },
        {
          "internalType": "bool",
          "name": "approved",
          "type": "bool"
        },
        {
          "internalType": "bool",
          "name": "isFraud",
          "type": "bool"
        }
      ],
      "stateMutability": "view",
      "type": "function"
    },
    {
      "inputs": [
        {
          "internalType": "uint256",
          "name": "_claimId",
          "type": "uint256"
        }
      ],
      "name": "getClaim",
      "outputs": [
        {
          "components": [
            {
              "internalType": "string",
              "name": "patientId",
              "type": "string"
            },
            {
              "internalType": "string",
              "name": "ipfsHash",
              "type": "string"
            },
            {
              "internalType": "bool",
              "name": "approved",
              "type": "bool"
            },
            {
              "internalType": "bool",
              "name": "isFraud",
              "type": "bool"
            }
          ],
          "internalType": "struct HealthInsurance.Claim",
          "name": "",
          "type": "tuple"
        }
      ],
      "stateMutability": "view",
      "type": "function"
    },
    {
      "inputs": [],
      "name": "getTotalClaims",
      "outputs": [
        {
          "internalType": "uint256",
          "name": "",
          "type": "uint256"
        }
      ],
      "stateMutability": "view",
      "type": "function"
    },
    {
      "inputs": [
        {
          "internalType": "uint256",
          "name": "_claimId",
          "type": "uint256"
        },
        {
          "internalType": "bool",
          "name": "_approved",
          "type": "bool"
        },
        {
          "internalType": "bool",
          "name": "_isFraud",
          "type": "bool"
        }
      ],
      "name": "reviewClaim",
      "outputs": [],
      "stateMutability": "nonpayable",
      "type": "function"
    },
    {
      "inputs": [
        {
          "internalType": "string",
          "name": "_patientId",
          "type": "string"
        },
        {
          "internalType": "string",
          "name": "_ipfsHash",
          "type": "string"
        }
      ],
      "name": "submitClaim",
      "outputs": [],
      "stateMutability": "nonpayable",
      "type": "function"
    }
  ],
  "bytecode": "0x6080604052348015600f57600080fd5b50336000806101000a81548173ffffffffffffffffffffffffffffffffffffffff021916908373ffffffffffffffffffffffffffffffffffffffff1602179055506110598061005f6000396000f3fe608060405234801561001057600080fd5b506004361061007d5760003560e01c80638da4d3c91161005b5780638da4d3c9146100ec578063960cbd411461010a578063a888c2cd14610126578063f851a440146101595761007d565b806316daa23b146100825780633cb11c0a146100a05780635aef2447146100bc575b600080fd5b61008a610177565b60405161009791906106f3565b60405180910390f35b6100ba60048036038101906100b59190610786565b610181565b005b6100d660048036038101906100d191906107d9565b61029f565b6040516100e3919061090f565b60405180910390f35b6100f4610426565b60405161010191906106f3565b60405180910390f35b610124600480360381019061011f9190610a66565b61042c565b005b610140600480360381019061013b91906107d9565b610530565b6040516101509493929190610b37565b60405180910390f35b61016161068a565b60405161016e9190610bcb565b60405180910390f35b6000600254905090565b60008054906101000a900473ffffffffffffffffffffffffffffffffffffffff1673ffffffffffffffffffffffffffffffffffffffff163373ffffffffffffffffffffffffffffffffffffffff161461020f576040517f08c379a000000000000000000000000000000000000000000000000000000000815260040161020690610c32565b60405180910390fd5b6000600160008581526020019081526020016000209050828160020160006101000a81548160ff021916908315150217905550818160020160016101000a81548160ff0219169083151502179055507f70f069ba3074ec11fbf09b383c0e6094e1fb8ac731a27a32a9fe24b0ee69f81b84848460405161029193929190610c52565b60405180910390a150505050565b6102a76106ae565b600160008381526020019081526020016000206040518060800160405290816000820180546102d590610cb8565b80601f016020809104026020016040519081016040528092919081815260200182805461030190610cb8565b801561034e5780601f106103235761010080835404028352916020019161034e565b820191906000526020600020905b81548152906001019060200180831161033157829003601f168201915b5050505050815260200160018201805461036790610cb8565b80601f016020809104026020016040519081016040528092919081815260200182805461039390610cb8565b80156103e05780601f106103b5576101008083540402835291602001916103e0565b820191906000526020600020905b8154815290600101906020018083116103c357829003601f168201915b505050505081526020016002820160009054906101000a900460ff161515151581526020016002820160019054906101000a900460ff1615151515815250509050919050565b60025481565b604051806080016040528083815260200182815260200160001515815260200160001515815250600160006002548152602001908152602001600020600082015181600001908161047d9190610e95565b5060208201518160010190816104939190610e95565b5060408201518160020160006101000a81548160ff02191690831515021790555060608201518160020160016101000a81548160ff0219169083151502179055509050507f67831143a09de024aba2ddaa95de93324d2696c033974bcfc5f0f5ab7b073b5e600254838360405161050c93929190610f67565b60405180910390a16002600081548092919061052790610fdb565b91905055505050565b600160205280600052604060002060009150905080600001805461055390610cb8565b80601f016020809104026020016040519081016040528092919081815260200182805461057f90610cb8565b80156105cc5780601f106105a1576101008083540402835291602001916105cc565b820191906000526020600020905b8154815290600101906020018083116105af57829003601f168201915b5050505050908060010180546105e190610cb8565b80601f016020809104026020016040519081016040528092919081815260200182805461060d90610cb8565b801561065a5780601f1061062f5761010080835404028352916020019161065a565b820191906000526020600020905b81548152906001019060200180831161063d57829003601f168201915b5050505050908060020160009054906101000a900460ff16908060020160019054906101000a900460ff16905084565b60008054906101000a900473ffffffffffffffffffffffffffffffffffffffff1681565b604051806080016040528060608152602001606081526020016000151581526020016000151581525090565b6000819050919050565b6106ed816106da565b82525050565b600060208201905061070860008301846106e4565b92915050565b6000604051905090565b600080fd5b600080fd5b61072b816106da565b811461073657600080fd5b50565b60008135905061074881610722565b92915050565b60008115159050919050565b6107638161074e565b811461076e57600080fd5b50565b6000813590506107808161075a565b92915050565b60008060006060848603121561079f5761079e610718565b5b60006107ad86828701610739565b93505060206107be86828701610771565b92505060406107cf86828701610771565b9150509250925092565b6000602082840312156107ef576107ee610718565b5b60006107fd84828501610739565b91505092915050565b600081519050919050565b600082825260208201905092915050565b60005b83811015610840578082015181840152602081019050610825565b60008484015250505050565b6000601f19601f8301169050919050565b600061086882610806565b6108728185610811565b9350610882818560208601610822565b61088b8161084c565b840191505092915050565b61089f8161074e565b82525050565b600060808301600083015184820360008601526108c2828261085d565b915050602083015184820360208601526108dc828261085d565b91505060408301516108f16040860182610896565b5060608301516109046060860182610896565b508091505092915050565b6000602082019050818103600083015261092981846108a5565b905092915050565b600080fd5b600080fd5b7f4e487b7100000000000000000000000000000000000000000000000000000000600052604160045260246000fd5b6109738261084c565b810181811067ffffffffffffffff821117156109925761099161093b565b5b80604052505050565b60006109a561070e565b90506109b1828261096a565b919050565b600067ffffffffffffffff8211156109d1576109d061093b565b5b6109da8261084c565b9050602081019050919050565b82818337600083830152505050565b6000610a09610a04846109b6565b61099b565b905082815260208101848484011115610a2557610a24610936565b5b610a308482856109e7565b509392505050565b600082601f830112610a4d57610a4c610931565b5b8135610a5d8482602086016109f6565b91505092915050565b60008060408385031215610a7d57610a7c610718565b5b600083013567ffffffffffffffff811115610a9b57610a9a61071d565b5b610aa785828601610a38565b925050602083013567ffffffffffffffff811115610ac857610ac761071d565b5b610ad485828601610a38565b9150509250929050565b600082825260208201905092915050565b6000610afa82610806565b610b048185610ade565b9350610b14818560208601610822565b610b1d8161084c565b840191505092915050565b610b318161074e565b82525050565b60006080820190508181036000830152610b518187610aef565b90508181036020830152610b658186610aef565b9050610b746040830185610b28565b610b816060830184610b28565b95945050505050565b600073ffffffffffffffffffffffffffffffffffffffff82169050919050565b6000610bb582610b8a565b9050919050565b610bc581610baa565b82525050565b6000602082019050610be06000830184610bbc565b92915050565b7f4f6e6c792061646d696e2063616e2072657669657720636c61696d7300000000600082015250565b6000610c1c601c83610ade565b9150610c2782610be6565b602082019050919050565b60006020820190508181036000830152610c4b81610c0f565b9050919050565b6000606082019050610c6760008301866106e4565b610c746020830185610b28565b610c816040830184610b28565b949350505050565b7f4e487b7100000000000000000000000000000000000000000000000000000000600052602260045260246000fd5b60006002820490506001821680610cd057607f821691505b602082108103610ce357610ce2610c89565b5b50919050565b60008190508160005260206000209050919050565b60006020601f8301049050919050565b600082821b905092915050565b600060088302610d4b7fffffffffffffffffffffffffffffffffffffffffffffffffffffffffffffffff82610d0e565b610d558683610d0e565b95508019841693508086168417925050509392505050565b6000819050919050565b6000610d92610d8d610d88846106da565b610d6d565b6106da565b9050919050565b6000819050919050565b610dac83610d77565b610dc0610db882610d99565b848454610d1b565b825550505050565b600090565b610dd5610dc8565b610de0818484610da3565b505050565b5b81811015610e0457610df9600082610dcd565b600181019050610de6565b5050565b601f821115610e4957610e1a81610ce9565b610e2384610cfe565b81016020851015610e32578190505b610e46610e3e85610cfe565b830182610de5565b50505b505050565b600082821c905092915050565b6000610e6c60001984600802610e4e565b1980831691505092915050565b6000610e858383610e5b565b9150826002028217905092915050565b610e9e82610806565b67ffffffffffffffff811115610eb757610eb661093b565b5b610ec18254610cb8565b610ecc828285610e08565b600060209050601f831160018114610eff5760008415610eed578287015190505b610ef78582610e79565b865550610f5f565b601f198416610f0d86610ce9565b60005b82811015610f3557848901518255600182019150602085019450602081019050610f10565b86831015610f525784890151610f4e601f891682610e5b565b8355505b6001600288020188555050505b505050505050565b6000606082019050610f7c60008301866106e4565b8181036020830152610f8e8185610aef565b90508181036040830152610fa28184610aef565b9050949350505050565b7f4e487b7100000000000000000000000000000000000000000000000000000000600052601160045260246000fd5b6000610fe6826106da565b91507fffffffffffffffffffffffffffffffffffffffffffffffffffffffffffffffff820361101857611017610fac565b5b60018201905091905056fea26469706673582212207b30c4c7bbe811bc3abf42f26822cf409e01d2f8ed871aa735b135556732604e64736f6c634300081c0033",
  "linkReferences": {},
  "deployedLinkReferences": {}
}